{
  "_format": "hh-sol-artifact-1",
  "contractName": "BuyMeACoffee",
  "sourceName": "contracts/BuyMeACoffee.sol",
  "abi": [
    {
      "inputs": [
        {
          "internalType": "string",
          "name": "_name",
          "type": "string"
        }
      ],
      "stateMutability": "nonpayable",
      "type": "constructor"
    },
    {
      "anonymous": false,
      "inputs": [
        {
          "indexed": true,
          "internalType": "address",
          "name": "from",
          "type": "address"
        },
        {
          "indexed": false,
          "internalType": "uint256",
          "name": "timestamp",
          "type": "uint256"
        },
        {
          "indexed": false,
          "internalType": "string",
          "name": "name",
          "type": "string"
        },
        {
          "indexed": false,
          "internalType": "string",
          "name": "message",
          "type": "string"
        },
        {
          "indexed": false,
          "internalType": "bool",
          "name": "isLargeCoffee",
          "type": "bool"
        }
      ],
      "name": "NewMemo",
      "type": "event"
    },
    {
      "inputs": [
        {
          "internalType": "string",
          "name": "_name",
          "type": "string"
        },
        {
          "internalType": "string",
          "name": "_message",
          "type": "string"
        }
      ],
      "name": "buyCoffee",
      "outputs": [],
      "stateMutability": "payable",
      "type": "function"
    },
    {
      "inputs": [],
      "name": "getMemos",
      "outputs": [
        {
          "components": [
            {
              "internalType": "address",
              "name": "from",
              "type": "address"
            },
            {
              "internalType": "uint256",
              "name": "timestamp",
              "type": "uint256"
            },
            {
              "internalType": "string",
              "name": "name",
              "type": "string"
            },
            {
              "internalType": "string",
              "name": "message",
              "type": "string"
            },
            {
              "internalType": "bool",
              "name": "isLargeCoffee",
              "type": "bool"
            }
          ],
          "internalType": "struct BuyMeACoffee.Memo[]",
          "name": "",
          "type": "tuple[]"
        }
      ],
      "stateMutability": "view",
      "type": "function"
    },
    {
      "inputs": [],
      "name": "name",
      "outputs": [
        {
          "internalType": "string",
          "name": "",
          "type": "string"
        }
      ],
      "stateMutability": "view",
      "type": "function"
    },
    {
      "inputs": [],
      "name": "owner",
      "outputs": [
        {
          "internalType": "address payable",
          "name": "",
          "type": "address"
        }
      ],
      "stateMutability": "view",
      "type": "function"
    },
    {
      "inputs": [],
      "name": "withdrawTips",
      "outputs": [],
      "stateMutability": "nonpayable",
      "type": "function"
    }
  ],
  "bytecode": "0x60806040523480156200001157600080fd5b506040516200144838038062001448833981810160405281019062000037919062000224565b33600160006101000a81548173ffffffffffffffffffffffffffffffffffffffff021916908373ffffffffffffffffffffffffffffffffffffffff1602179055508060029081620000899190620004c0565b5050620005a7565b6000604051905090565b600080fd5b600080fd5b600080fd5b600080fd5b6000601f19601f8301169050919050565b7f4e487b7100000000000000000000000000000000000000000000000000000000600052604160045260246000fd5b620000fa82620000af565b810181811067ffffffffffffffff821117156200011c576200011b620000c0565b5b80604052505050565b60006200013162000091565b90506200013f8282620000ef565b919050565b600067ffffffffffffffff821115620001625762000161620000c0565b5b6200016d82620000af565b9050602081019050919050565b60005b838110156200019a5780820151818401526020810190506200017d565b60008484015250505050565b6000620001bd620001b78462000144565b62000125565b905082815260208101848484011115620001dc57620001db620000aa565b5b620001e98482856200017a565b509392505050565b600082601f830112620002095762000208620000a5565b5b81516200021b848260208601620001a6565b91505092915050565b6000602082840312156200023d576200023c6200009b565b5b600082015167ffffffffffffffff8111156200025e576200025d620000a0565b5b6200026c84828501620001f1565b91505092915050565b600081519050919050565b7f4e487b7100000000000000000000000000000000000000000000000000000000600052602260045260246000fd5b60006002820490506001821680620002c857607f821691505b602082108103620002de57620002dd62000280565b5b50919050565b60008190508160005260206000209050919050565b60006020601f8301049050919050565b600082821b905092915050565b600060088302620003487fffffffffffffffffffffffffffffffffffffffffffffffffffffffffffffffff8262000309565b62000354868362000309565b95508019841693508086168417925050509392505050565b6000819050919050565b6000819050919050565b6000620003a16200039b62000395846200036c565b62000376565b6200036c565b9050919050565b6000819050919050565b620003bd8362000380565b620003d5620003cc82620003a8565b84845462000316565b825550505050565b600090565b620003ec620003dd565b620003f9818484620003b2565b505050565b5b81811015620004215762000415600082620003e2565b600181019050620003ff565b5050565b601f82111562000470576200043a81620002e4565b6200044584620002f9565b8101602085101562000455578190505b6200046d6200046485620002f9565b830182620003fe565b50505b505050565b600082821c905092915050565b6000620004956000198460080262000475565b1980831691505092915050565b6000620004b0838362000482565b9150826002028217905092915050565b620004cb8262000275565b67ffffffffffffffff811115620004e757620004e6620000c0565b5b620004f38254620002af565b6200050082828562000425565b600060209050601f83116001811462000538576000841562000523578287015190505b6200052f8582620004a2565b8655506200059f565b601f1984166200054886620002e4565b60005b8281101562000572578489015182556001820191506020850194506020810190506200054b565b868310156200059257848901516200058e601f89168262000482565b8355505b6001600288020188555050505b505050505050565b610e9180620005b76000396000f3fe60806040526004361061004a5760003560e01c806306fdde031461004f578063204206e11461007a5780633aaa74b214610096578063865c5172146100ad5780638da5cb5b146100d8575b600080fd5b34801561005b57600080fd5b50610064610103565b6040516100719190610661565b60405180910390f35b610094600480360381019061008f91906107cc565b610191565b005b3480156100a257600080fd5b506100ab61034b565b005b3480156100b957600080fd5b506100c26103ad565b6040516100cf9190610a42565b60405180910390f35b3480156100e457600080fd5b506100ed6105ab565b6040516100fa9190610a85565b60405180910390f35b6002805461011090610acf565b80601f016020809104026020016040519081016040528092919081815260200182805461013c90610acf565b80156101895780601f1061015e57610100808354040283529160200191610189565b820191906000526020600020905b81548152906001019060200180831161016c57829003601f168201915b505050505081565b600034116101d4576040517f08c379a00000000000000000000000000000000000000000000000000000000081526004016101cb90610b4c565b60405180910390fd5b6000662386f26fc1000034036101e957600190505b60006040518060a001604052803373ffffffffffffffffffffffffffffffffffffffff168152602001428152602001858152602001848152602001831515815250908060018154018082558091505060019003906000526020600020906005020160009091909190915060008201518160000160006101000a81548173ffffffffffffffffffffffffffffffffffffffff021916908373ffffffffffffffffffffffffffffffffffffffff1602179055506020820151816001015560408201518160020190816102b99190610d18565b5060608201518160030190816102cf9190610d18565b5060808201518160040160006101000a81548160ff02191690831515021790555050503373ffffffffffffffffffffffffffffffffffffffff167ff60127f6e3d9514ff255ca311cafcaa77c5fb238e6ba211cf77f8684d318c8684285858560405161033e9493929190610e08565b60405180910390a2505050565b600160009054906101000a900473ffffffffffffffffffffffffffffffffffffffff1673ffffffffffffffffffffffffffffffffffffffff166108fc479081150290604051600060405180830381858888f193505050506103ab57600080fd5b565b60606000805480602002602001604051908101604052809291908181526020016000905b828210156105a257838290600052602060002090600502016040518060a00160405290816000820160009054906101000a900473ffffffffffffffffffffffffffffffffffffffff1673ffffffffffffffffffffffffffffffffffffffff1673ffffffffffffffffffffffffffffffffffffffff1681526020016001820154815260200160028201805461046490610acf565b80601f016020809104026020016040519081016040528092919081815260200182805461049090610acf565b80156104dd5780601f106104b2576101008083540402835291602001916104dd565b820191906000526020600020905b8154815290600101906020018083116104c057829003601f168201915b505050505081526020016003820180546104f690610acf565b80601f016020809104026020016040519081016040528092919081815260200182805461052290610acf565b801561056f5780601f106105445761010080835404028352916020019161056f565b820191906000526020600020905b81548152906001019060200180831161055257829003601f168201915b505050505081526020016004820160009054906101000a900460ff161515151581525050815260200190600101906103d1565b50505050905090565b600160009054906101000a900473ffffffffffffffffffffffffffffffffffffffff1681565b600081519050919050565b600082825260208201905092915050565b60005b8381101561060b5780820151818401526020810190506105f0565b60008484015250505050565b6000601f19601f8301169050919050565b6000610633826105d1565b61063d81856105dc565b935061064d8185602086016105ed565b61065681610617565b840191505092915050565b6000602082019050818103600083015261067b8184610628565b905092915050565b6000604051905090565b600080fd5b600080fd5b600080fd5b600080fd5b7f4e487b7100000000000000000000000000000000000000000000000000000000600052604160045260246000fd5b6106d982610617565b810181811067ffffffffffffffff821117156106f8576106f76106a1565b5b80604052505050565b600061070b610683565b905061071782826106d0565b919050565b600067ffffffffffffffff821115610737576107366106a1565b5b61074082610617565b9050602081019050919050565b82818337600083830152505050565b600061076f61076a8461071c565b610701565b90508281526020810184848401111561078b5761078a61069c565b5b61079684828561074d565b509392505050565b600082601f8301126107b3576107b2610697565b5b81356107c384826020860161075c565b91505092915050565b600080604083850312156107e3576107e261068d565b5b600083013567ffffffffffffffff81111561080157610800610692565b5b61080d8582860161079e565b925050602083013567ffffffffffffffff81111561082e5761082d610692565b5b61083a8582860161079e565b9150509250929050565b600081519050919050565b600082825260208201905092915050565b6000819050602082019050919050565b600073ffffffffffffffffffffffffffffffffffffffff82169050919050565b600061089b82610870565b9050919050565b6108ab81610890565b82525050565b6000819050919050565b6108c4816108b1565b82525050565b600082825260208201905092915050565b60006108e6826105d1565b6108f081856108ca565b93506109008185602086016105ed565b61090981610617565b840191505092915050565b60008115159050919050565b61092981610914565b82525050565b600060a08301600083015161094760008601826108a2565b50602083015161095a60208601826108bb565b506040830151848203604086015261097282826108db565b9150506060830151848203606086015261098c82826108db565b91505060808301516109a16080860182610920565b508091505092915050565b60006109b8838361092f565b905092915050565b6000602082019050919050565b60006109d882610844565b6109e2818561084f565b9350836020820285016109f485610860565b8060005b85811015610a305784840389528151610a1185826109ac565b9450610a1c836109c0565b925060208a019950506001810190506109f8565b50829750879550505050505092915050565b60006020820190508181036000830152610a5c81846109cd565b905092915050565b6000610a6f82610870565b9050919050565b610a7f81610a64565b82525050565b6000602082019050610a9a6000830184610a76565b92915050565b7f4e487b7100000000000000000000000000000000000000000000000000000000600052602260045260246000fd5b60006002820490506001821680610ae757607f821691505b602082108103610afa57610af9610aa0565b5b50919050565b7f6d7573742073656e64203e302065746800000000000000000000000000000000600082015250565b6000610b366010836105dc565b9150610b4182610b00565b602082019050919050565b60006020820190508181036000830152610b6581610b29565b9050919050565b60008190508160005260206000209050919050565b60006020601f8301049050919050565b600082821b905092915050565b600060088302610bce7fffffffffffffffffffffffffffffffffffffffffffffffffffffffffffffffff82610b91565b610bd88683610b91565b95508019841693508086168417925050509392505050565b6000819050919050565b6000610c15610c10610c0b846108b1565b610bf0565b6108b1565b9050919050565b6000819050919050565b610c2f83610bfa565b610c43610c3b82610c1c565b848454610b9e565b825550505050565b600090565b610c58610c4b565b610c63818484610c26565b505050565b5b81811015610c8757610c7c600082610c50565b600181019050610c69565b5050565b601f821115610ccc57610c9d81610b6c565b610ca684610b81565b81016020851015610cb5578190505b610cc9610cc185610b81565b830182610c68565b50505b505050565b600082821c905092915050565b6000610cef60001984600802610cd1565b1980831691505092915050565b6000610d088383610cde565b9150826002028217905092915050565b610d21826105d1565b67ffffffffffffffff811115610d3a57610d396106a1565b5b610d448254610acf565b610d4f828285610c8b565b600060209050601f831160018114610d825760008415610d70578287015190505b610d7a8582610cfc565b865550610de2565b601f198416610d9086610b6c565b60005b82811015610db857848901518255600182019150602085019450602081019050610d93565b86831015610dd55784890151610dd1601f891682610cde565b8355505b6001600288020188555050505b505050505050565b610df3816108b1565b82525050565b610e0281610914565b82525050565b6000608082019050610e1d6000830187610dea565b8181036020830152610e2f8186610628565b90508181036040830152610e438185610628565b9050610e526060830184610df9565b9594505050505056fea2646970667358221220852b88205b54d2358257b2d4d276aee767382d8059b6e573512e280b72b5be4864736f6c63430008110033",
  "linkReferences": {},
  "deployedLinkReferences": {}
}